:020000040000FA
:100000008316FB308500013086008312850186014E
:100010008C018D018E018F019001910192013F2091
:1000200060200C08AA3A031D0F2863203F2060209F
:100030000C08003A031D0F28F4308C009B2063202D
:10004000392080203F2060200C08FA3A031D0F2839
:1000500063203F2060200C08900063203F20602038
:100060000C08910063203F2060200C089200B02013
:10007000282816309300930B3B2800000800051831
:100080003F28051C41285620562056205620562031
:1000900056205620562005184B28851854280D1038
:1000A0007B20051C512808000D14502805185628DF
:1000B00005088F008F0C8F0C8C0C051C5D28080028
:1000C0006720392008008316051483120800831660
:1000D0000510831205100800831685108312851001
:1000E000080083168514831208008C0C03187A28E4
:1000F0006C207B287120051C7B2805187D280800B2
:1001000060203D206C203D20632005188528752047
:100110007520752075207520752075207520982014
:100120007B2071207B20051C9328851C95280800C6
:100130000D1871286C288E010C188E0A8C188E0AE6
:100140000C198E0A8C198E0A0C1A8E0A8C1A8E0AB9
:100150000C1B8E0A8C1B8E0A0D100E1C0D14080031
:10016000101C061710180613901C8617901886137B
:100170001108003C9100061CBB2811089400940E45
:10018000DA200618C12811089400DA20061CC628B7
:1001900012089400940EDA200618CC281208940055
:1001A000DA20D520E130860508000C309300930B4F
:1001B000D7280800141C861014188614941C0611E5
:1001C00094180615141D861114198615941D06120F
:0601D00094190616080058
:0401D60000340034BD
:02400E00F33F7E
:00000001FF
